:020000040800F2
:1000000060090020A101000807200008391E00082F
:10001000052000083D0D00087924000800000000BC
:100020000000000000000000000000000B2000089D
:100030003F0D000800000000092000080D20000806
:10004000BB010008BB010008BB010008BB010008A0
:10005000BB010008BB010008BB010008BB01000890
:10006000BB010008BB010008BB010008BB01000880
:10007000BB010008BB010008BB010008BB01000870
:10008000BB010008BB010008BB010008BB01000860
:10009000BB010008BB010008BB010008BB01000850
:1000A000BB010008BB010008BB010008BB01000840
:1000B000BB010008BB010008BB010008BB01000830
:1000C000BB010008BB010008BB010008BB01000820
:1000D000BB010008BB0100086D240008BB0100083B
:1000E000BB010008BB010008BB01000800F002F8DA
:1000F00000F047F80AA090E8000C82448344AAF17B
:100100000107DA4501D100F03CF8AFF2090EBAE878
:100110000F0013F0010F18BFFB1A43F0010318473B
:10012000F423000014240000103A24BF78C878C1DA
:10013000FAD8520724BF30C830C144BF04680C60ED
:10014000704700000023002400250026103A28BF35
:1001500078C1FBD8520728BF30C148BF0B60704739
:10016000732900F05F82002070471FB59DE80300EF
:1001700000F0F8F900F08EFA1FBD10B500F0F3FAA8
:1001800010BD00F05EFB1146FFF7EFFF02F098F99B
:1001900000F03CFC03B4FFF7F0FF03BC00F074FC7C
:1001A0000948804709480047FEE7FEE7FEE7FEE70B
:1001B000FEE7FEE7FEE7FEE7FEE7FEE70448054947
:1001C000054A064B704700006F200008ED0000084C
:1001D0006003002060090020600500206005002009
:1001E00070B5064600F0A2F9056806F10B0020F094
:1001F0000704B4429CBF002070BD2B466A68BAB1A8
:100200001068A04210D304F1080188423CBF506836
:10021000586007D35168101941601168091B0160CB
:1002200058601460101D70BD13465268002AE7D153
:100230002146284600F082F90028DED170BD70B555
:100240000446051F00F072F90068002C14BF4468D2
:1002500070BD002C18BFAC423CBF20466468F8D388
:1002600001680A18AA4218BF456003D12A680546EA
:100270001144016028684119A1421CBF6C6070BD27
:100280006168696021680844286070BD0FB4044942
:1002900010B503AA029800F0C9F910BC5DF814FB70
:1002A0005402002070B50C460546012A05D0287876
:1002B000800600D5EA69002302E0012305E05B1C0B
:1002C000934202D2E05C0028F9D1A869E618C01A6E
:1002D000A861286A184428622846AFF3008004E029
:1002E000D5E9012114F8010B9047B442F8D3284610
:1002F000AFF3008070BD2DE9F0474FF0000A89464A
:100300000446C0F820A02046E1688847002876D03F
:10031000252806D0D4E901219047206A401C20629C
:10032000F1E7E168204600268847C4F81CA005468E
:100330000027C4F818A02A2D09D0284602F0ADF8ED
:1003400038B304EB8708303DC8F8185019E059F865
:10035000041B204604EB87029161E1688847012F66
:10036000054618D1E069002820DA26F020061DE0B5
:10037000D8F8180000EB800005EB40003038C8F8D2
:1003800018002046E1688847054602F086F80028F4
:10039000EED1012F0AD02E2D08D12046E1688847E2
:1003A0007F1C0546022F46F02006C4DBA06900280A
:1003B00003DA404246F00106A061F00701D026F0C2
:1003C00010066C2D0AD0682D08D04C2D39D06A2D1E
:1003D00035D0742D35D07A2D33D016E0E1682F4614
:1003E00020468847B84205460AD16C2F27D04FF4E3
:1003F0008060E168064320468847054605E027E01F
:100400006C2F1AD04FF4807006430DB3A5F1410054
:10041000192802D8203546F400664A462946204667
:1004200026604E46FFF79CFE80B101280BD0F61DDA
:1004300026F0070000F1080965E74020E4E7802086
:10044000D7E70020D5E706F104095CE7284661E715
:10045000206ABDE8F08710B5431C02E010F8011BCC
:1004600071B18107FAD14FF0013202C88C1A8C4366
:1004700014EAC211F9D0C01A0A0603D0C01E10BD7A
:10048000C01A10BD0A0401D0801E10BD0902FCD0A4
:10049000401E10BD4FF000020429C0F0128010F081
:1004A000030C00F01B80CCF1040CBCF1020F18BF50
:1004B00000F8012BA8BF20F8022BA1EB0C0100F0E3
:1004C0000DB85FEAC17C24BF00F8012B00F8012BB6
:1004D00048BF00F8012B70474FF0000200B51346EB
:1004E00094469646203922BFA0E80C50A0E80C5054
:1004F000B1F12001BFF4F7AF090728BFA0E80C5005
:1005000048BF0CC05DF804EB890028BF40F8042BFD
:1005100008BF704748BF20F8022B11F0804F18BF6A
:1005200000F8012B704770477047704700487047CC
:1005300004030020704770477047704738B5044681
:100540000A4600206946AFF30080002808BF38BD86
:1005500002460099204600F07FF8012038BD0120B6
:1005600000F034B9F8B5AFF30080054600200C4622
:10057000102000BF0646A819A0420DD93246694690
:100580000020AFF30080070008BF00F01FF90098BB
:10059000A04218BF0546C419FFF7C8FF056007460B
:1005A000F01D20F007004619284600F00AF8B44272
:1005B00008BFF8BDA21B31463868BDE8F84000F01E
:1005C0004BB800210160C0E901107047102070474E
:1005D00001694A1C02610878704700B58FB0CDE907
:1005E00001310021059105497944CDE903101146F7
:1005F0006846FFF780FE0FB000BD0000E5FFFFFF7B
:1006000010B5436913B1AFF3008001E0FFF74AFE74
:10061000012010BD127800F124010A7000224A70F6
:100620000122EDE711684FF0FF32E9E7074B70B5A3
:100630000D467B44FFF7D1FF0446284600F026F81C
:1006400010B14FF0FF3070BD204670BD731E00002A
:1006500000487047FC020020034640688C46002892
:1006600018BF88423CBF03464068F8D31868184456
:10067000884207D00CF1030020F00700001D411A4A
:10068000521A0146081D0A60FFF7D9BD007B00F031
:100690008000704710B542485421FFF71DFF4148C4
:1006A0005421FFF719FF40485421FFF715FF3F4938
:1006B0003B483C4A3F4B08603D490A603A49196053
:1006C000531C0365481C1065012008653B48344AEB
:1006D00039A1784400F0FEF820B9384878440A3847
:1006E00000F0A2F937482F4A35A1784400F0F2F81B
:1006F00020B9344878440A3800F096F932482A4A3A
:100700002FA1784400F0E6F820B92F4878440A3841
:1007100000F08AF940232248DC000021224600F044
:10072000B5F820B125487844543800F07DF91D48CB
:1007300022464023002100F0A9F820B12148784446
:10074000543800F071F9184822461023002100F0B7
:100750009DF8002806D01C487844BDE81040563863
:1007600000F062B910BD104870B5006D20F00104B2
:100770000B4800F025F90B4800F022F90A4800F078
:100780001FF909E0206D20F00105204600F018F95E
:100790002046FFF754FD2C46002CF3D170BD00001D
:1007A0000002002054020020A80200203C0000208B
:1007B000400000204400002072000000321E0000B3
:1007C000770000001E1E00000A1E000010B500F099
:1007D00033F9BDE8104000F022B90EB5CDE90001B3
:1007E000FFF739FE029069460120ABBE0EBD08B589
:1007F000694600900220ABBE08BD1FB58DE807001A
:1008000069460520ABBE04B010BD1FB58DE80F00D2
:1008100069460620ABBEF6E708B569460090092098
:10082000ABBE08BD1CB5CDE9000169460A20ABBED0
:100830001CBD704708B5694600900C20ABBE08BDD2
:1008400070477546FFF704FFAE46050069465346FC
:1008500020F00700854618B020B5FFF7AFFCBDE8D3
:1008600020404FF000064FF000074FF000084FF017
:10087000000B21F00701AC46ACE8C009ACE8C009A8
:10088000ACE8C009ACE8C0098D46704770B5C468D3
:10089000A50713D0650211D4B2F5807F09D0B2F557
:1008A000007F06D0B2F5806F08D1012300F124014A
:1008B00006E05D1E6FF07F46B54201D3012070BD9A
:1008C0000161C361416024F470611143C160002083
:1008D00070BD00002DE9F0410C4607461646104653
:1008E00000F06EF82078611C61280AD0722802D0CE
:1008F00077283CD102E00125002405E002250424EC
:1009000002E0082448F2020511F8010B2B2806D05A
:10091000622809D011F8010C74280AD00BE045F0C8
:10092000030544F00204EFE745F0040544F0010438
:10093000EAE744F0100438462146FFF74EFF411C19
:1009400015D00021316171604FF40071F560F161E3
:100950007061200704D530460222002100F09AF889
:10096000306D40F0010030653046BDE8F081002078
:10097000FBE72DE9F0410D460646104C206DC107FE
:1009800004D0410804D020F00104F7E722460EE02D
:100990005420FFF725FC07000ED0206D47F0010121
:1009A0000843542120653846FFF796FD3A4629460C
:1009B0003046BDE8F0418DE70020D6E70002002078
:1009C0002DE9F04704464FF000094FF0FF37C568A6
:1009D000D4E90486A80707D0204600F00BF930467A
:1009E000FFF705FF002802DA3846BDE8F087280542
:1009F00002D54046FFF723FC4C212046FFF76CFD53
:100A0000206D20F0010020654846EEE710B5044651
:100A1000AFF300802046BDE81040FFF7BBBB0028C5
:100A200001D000F031B8704710B500F041F9BDE8D1
:100A30001040FFF7F4BF000010B5012805D00021D9
:100A400003A000F01BF9012010BD09A1F8E7000088
:100A500053494752544D454D3A204F7574206F66A7
:100A60002068656170206D656D6F7279000000000F
:100A70003A2048656170206D656D6F727920636FF3
:100A8000727275707465640001491820ABBEFEE790
:100A9000260002002DE9F041044616460D4647693E
:100AA000007B80072ED03846FFF7B6FE50BB3EB322
:100AB000012E02D0022E25D104E0204600F019F9C3
:100AC00005441DE03846FFF7B5FEE168002841F017
:100AD0001001E16005DA204600F058F80120BDE879
:100AE000F081C9030BD56268E16A914200D81146D2
:100AF000A26911442269891A814200DD0846054431
:100B0000002D01DA0220EAE7E16A6068E2688142CA
:100B100006D29103E06203D522F4003141F01002C5
:100B2000A6690027AE4213DCE16A814201D90B4677
:100B300000E0034603EB060C2369ACEB030CAC4569
:100B400006DD814201D98C4600E084469C4505D1F2
:100B5000A760276042F02000A5620DE0AD1BE669AA
:100B6000AE1B8142A66000D90846C01A281A206030
:100B70005819606022F0200003490840E06000201E
:100B800084F84870ABE70000BFCFD7FFC16821F4FD
:100B9000001141F08001C160002181600160704757
:100BA0002DE9F047814614460E464FF0FF38324893
:100BB000D5685769054209D03846A169FFF732FE6A
:100BC000002811DB2C48C0430540E5602B46324627
:100BD00049463846FFF711FEA16920F00042B21ADB
:100BE00011440028A16103D02046FFF7CFFF404603
:100BF000BDE8F08770B504460569C06A616888423F
:100C000000D80846E16821F42011E160C90312D53B
:100C1000A84208D02246411B2846FFF7C1FF10B169
:100C20004FF0FF3070BD0020E562C4E90150E0687C
:100C300020F48030E060002070BD10B50446C0682C
:100C400020F02000E060A16AA06988420DD0204613
:100C5000FFF7D0FFE06820F4405040F01000E06063
:100C6000A06AA0612069E062606044F24001E0682F
:100C70008843E06010BD00001000020070B505461A
:100C80000C460A2000E06D1C00F02CF835B12878E5
:100C90000028F8D102E0641C00F024F814B1207898
:100CA0000028F8D1BDE870400A2000F01BB8000011
:100CB00010B5014602A0FFF7E1FF012010BD0000C2
:100CC00053494752545245443A205265646972650B
:100CD00063743A2063616E2774206F70656E3A20EA
:100CE0000000000008B569468DF800000320ABBE87
:100CF00008BD10B50146C268900703D0900607D51D
:100D0000886A0AE000F016F801210160881E10BD13
:100D10008B69486818440B69C01A91F848301BB1B8
:100D200091F84910401A10BD1103FCD50028FADDD6
:100D3000401E10BD00487047FC020020FEE77047CF
:100D400072B6FEE710B590F821100022022905D0F6
:100D50000421816380F82020012010BD01680B6808
:100D600023F00E030B6001680B6823F001030B6096
:100D700090F84030C46B012101FA03F3636080F8FE
:100D8000211080F82020104610BD000010B590F80A
:100D900021100024022903D00421816301243DE0B5
:100DA00001680A6822F00E020A6001680A6822F0EF
:100DB00001020A601A4A0168914201D1012121E031
:100DC000174A1432914201D110211BE0144A2832F3
:100DD000914201D1891515E0114A3C32914201D16D
:100DE00089140FE00E4A5032914202D14FF4803103
:100DF00008E00B4A6432914202D14FF4801101E0C5
:100E00004FF08071064A083A5160012180F82110A4
:100E1000002180F82010416B01B18847204610BDA9
:100E2000080002402DE9F84FDFF8B891002409F1DD
:100E3000040A0AF1040B23460F270BF1040EC9E044
:100E40000125A5402A40AA427DD1674ED1F804C0B1
:100E5000ACEB0608B44532D014DCBCF1030F3AD039
:100E600009DCBCF1000F2AD0BCF1010F1CD0BCF191
:100E7000020F31D11DE0BCF1110F17D0BCF1120FE0
:100E80002AD119E0B8F5881F19D006DCB8F5803FE3
:100E900015D0B8F5801F1FD111E0B8F5001F0ED096
:100EA000B8F5041F18D10AE0CB6815E0CB681B1D0C
:100EB00012E0CB6808330FE0CB680C330CE08B6892
:100EC0002BB1012B4FF0080303D0456104E004234C
:100ED00002E0056100E00023FF2A01D8064601E098
:100EE00000F104064FEA840501D9A5F12005D6F8E2
:100EF000008007FA05FC28EA0C0803FA05F548EA21
:100F00000508C6F800804D68ED0062D5374DAE6922
:100F100046F00106AE61AD6924F0030605F0010557
:100F20000095334D06EB050CDCF80850A607360F8C
:100F300007FA06F825EA0805DFF8B880404503D12E
:100F40004FF0000817E044E0DFF8AC80404502D1E4
:100F50004FF001080FE0DFF8A480404502D14FF0C8
:100F6000020808E0DFF89880404502D14FF00308FE
:100F700001E04FF0040808FA06F848EA0508CCF842
:100F800008804D68D9F80060ED034D4601D5164341
:100F900000E096432E604D68DAF80060AD035546D8
:100FA00001D5164300E096432E604D68DBF80060E3
:100FB000ED025D4601D5164300E096432E604D6874
:100FC000DEF80060AD02754601D5164300E0964399
:100FD0002E60641C0D682A46E5407FF431AFBDE801
:100FE000F88F0000000401400000111000100240C2
:100FF0000000014000080140000C014000100140C9
:10100000001401400AB1016170470904FBE70000C8
:101010000148806870470000000000200248816895
:10102000027811448160704700000020074810B525
:10103000016841F010010160032000F075F80F20F5
:1010400000F006F800F024F8002010BD0020024057
:1010500070B50D4D04464FF47A712878B1FBF0F06D
:101060000A490968B1FBF0F000F080FB48B9102C88
:1010700007D200222146501E00F036F800206C6096
:1010800070BD012070BD0000000000200C00002099
:101090000C4808B5816941F001018161816901F065
:1010A00001010091C16941F08051C161C06900F046
:1010B000805000900448416821F0E06141F00071E7
:1010C000416008BD0010024000000140002809DB1B
:1010D00000F01F02012191404009800000F1E02052
:1010E000C0F8001170470000F0B40E4B1B680C46AE
:1010F000C3F30223C3F10705042D00D90425191DEC
:10110000072901D2002300E0DB1E012606FA05F1C3
:10111000491E214099409E40761E16403143F0BC46
:1011200001F0ABB90CED00E0064900F007020868D9
:101130004FF6FF03184040EA0220034A10430860BC
:10114000704700000CED00E00000FA052DE9F047C3
:101150000F46050061D0434E306800F00700B842EA
:1011600009D2306820F0070038433060306800F062
:101170000700B84251D128683B4C810712D540077F
:1011800003D5606840F4E06060602878000703D50C
:10119000606840F4605060606068A96820F0F0000A
:1011A000084360602878C00728D06868012810D0FC
:1011B0002168022810D0890700292EDA616821F001
:1011C000030101436160FFF723FF804641F2883944
:1011D0000DE021688903EFE78901EDE7FFF718FFCC
:1011E000A0EB0801494502D90320BDE8F0876068FB
:1011F000696800F00C00B0EB810FEFD1306800F0AF
:101200000700B8420BD9306820F00700384330603F
:10121000306800F00700B84201D00120E5E72878E7
:10122000400705D56068E96820F4E0600843606025
:101230002878000706D56068296920F4605040EAE4
:10124000C100606000F038F86168084AC1F303111A
:10125000515CC8400649086006480068FFF7F8FE80
:101260000020C2E70020024000100240F0240008E5
:101270000C0000200400002004480549006849686B
:10128000044AC1F30221515CC84070470C000020A1
:10129000001002400025000804480549006849681C
:1012A000044AC1F3C221515CC84070470C000020C1
:1012B000001002400025000812A185B00FC98DE87A
:1012C0000F0014A0144A006804905168134801F0FC
:1012D0000C03042B10D0082B0ED1C1F38343C90398
:1012E0001DF803000AD5516804AAC1F34041515CBE
:1012F0000A4A5043B0FBF1F005B070470849484333
:10130000FAE7000002030405060708090A0B0C0DA2
:101310000E0F1010010200000010024000127A00AF
:1013200000093D002DE9F84F040070D02078C04D31
:10133000C00749D06868C0F38100012807D06868F9
:10134000C0F38100022809D16868C00306D5286867
:10135000800339D560680028E7D035E06068B0F5D3
:10136000803F0BD010B1B0F5A02F11D0286820F429
:1013700080302860286820F4802002E0286840F44B
:1013800080302860606890B1FFF742FE06460AE0B0
:10139000286840F480202860F0E700BFFFF738FE9F
:1013A000801B642873D828688003F7D50CE0FFF70A
:1013B0002FFE064605E000BFFFF72AFE801B6428CB
:1013C000F0D828688003F7D420789A4E80074FF031
:1013D00001094FF0000839D5686810F00C0F07D0EC
:1013E0006868C0F38100022809D16868C00306D488
:1013F0002868800714D52069012808D110E02069E9
:10140000B0B1C6F80090FFF703FE074605E00AE119
:10141000FFF7FEFDC01B0228C4D828688007F7D557
:101420002868616920F0F80040EAC10028600DE0FA
:10143000C6F80080FFF7ECFD074604E0FFF7E8FD83
:10144000C01B022823D828688007F7D4207800071B
:101450002CD57948A169D9B1C0F80090FFF7D8FD23
:10146000074604E0FFF7D4FDC01B02280FD8686AC6
:101470008007F7D571484FF4FA510068B0FBF1F0DE
:10148000009000BF0098411E0091FAD20EE080E06B
:10149000C0F80080FFF7BCFD074604E0FFF7B8FD89
:1014A000C01B022875D8686A8007F7D420784007E7
:1014B00060D5E8690027C00008D4E86940F0805092
:1014C000E861E869012700F0805000905C480168FD
:1014D000C90513D40168834641F480710160FFF7A8
:1014E00097FD824606E000BFFFF792FDA0EB0A00E1
:1014F00064284ED8DBF80000C005F5D5E068012867
:101500000AD008B1052813D0286A20F0010028620B
:10151000286A20F0040002E0286A40F001002862F6
:10152000E06841F2883B98B1FFF772FD82460BE01C
:10153000286A40F004002862EEE700BFFFF768FD6C
:10154000A0EB0A0159455AD8286A8007F6D50CE065
:10155000FFF75EFD824605E0FFF75AFDA0EB0A01AA
:1015600059454CD8286A8007F6D41FB1E86920F0A5
:101570008050E861E06988B36968C1F3810102299C
:1015800044D00228C6F8608004D0FFF741FD04462D
:1015900038E034E0FFF73CFD074604E0FFF738FD94
:1015A000C01B02282BD828688001F7D4206AB0F528
:1015B000803F05D16868A16820F400300843686066
:1015C000D4E908010843696821F47411084368608C
:1015D000C6F86090FFF71CFD044606E025E000BF5A
:1015E000FFF716FD001B022809D828688001F7D5EF
:1015F0001BE000BFFFF70CFD001B022802D90320EF
:10160000BDE8F88F28688001F4D40EE00128F7D0F7
:101610006868226A00F48031914204D1616A00F462
:101620007010884201D00120EAE70020E8E70000BE
:101630000010024000004242800442420C000020A0
:101640000070004070B5040009D0606A002540B108
:1016500025616561A56294F8510040B10CE001205C
:1016600070BD6068B0F5827FF4D0E561F2E784F880
:101670005050204600F040F8022084F851002068C5
:10168000016821F040010160A088218900F4827086
:1016900001F404410843A18901F400610843217C5D
:1016A00001F002010843217D01F001010843218B73
:1016B00001F400710843217F01F03801084394F8D8
:1016C000201001F080010843218D01F400510843EE
:1016D00021680860A069042101EA1040216848607F
:1016E0002068C16921F40061C1616565012084F849
:1016F0005100002070BD000030B585B0002400947A
:1017000001940294039400681549884225D1154834
:10171000C16941F48041C161C16901F48041049112
:10172000816941F00801816180690F4D00F0080076
:1017300004904FF420400090022001900320039079
:1017400069462846FFF76EFB4FF48040CDE9000460
:10175000694628460294FFF765FB05B030BD0000DE
:101760000038004000100240000C014010B5401E3F
:10177000B0F1807F01D3012010BD4FF0E024606103
:101780000F21601700F079FE0020A0610720206182
:10179000002010BD70B590F83C20012A26D001240D
:1017A00080F83C40022280F83D2003685A689D681A
:1017B00022F070060A6832435A600D4B02689A4262
:1017C00008D0B2F1804F05D00A4B9A4202D00A4BA2
:1017D0009A4204D1496825F080031943916080F84A
:1017E0003D40002180F83C10084670BD022070BDCD
:1017F000002C0140000400400008004000B585B006
:10180000002100910191029103910068B0F1804F95
:101810001AD10E48816941F00801816180696946E9
:1018200000F008000490082000900220019003902E
:101830000748FFF7F7FA0748416821F4407141F083
:10184000E06141F48071416005B000BD00100240CC
:10185000000C01400000014070B5044690F83C00C7
:101860000D4601280AD0012084F83C0042B1042A28
:1018700018D0082A2AD00C2A4DD139E0022070BD98
:10188000206800F02BFC2068816941F0080181612B
:101890002068816921F004018161206881692A69D9
:1018A000114311E0206800F041FC2068816941F497
:1018B000006181612068816921F480618161206813
:1018C00081692A6941EA0221816124E0206800F0EF
:1018D00059FC2068C16941F00801C1612068C169F3
:1018E00021F00401C1612068C1692A69114311E036
:1018F000206800F073FC2068C16941F40061C16197
:101900002068C16921F48061C1612068C1692A69C8
:1019100041EA0221C161002084F83C0070BD10B58D
:10192000040003D094F83D0010B107E0012010BD81
:10193000002084F83C00204600F01EF8022084F8C5
:101940003D00211D206800F093FB012084F8460033
:1019500084F83E0084F83F0084F8400084F8410099
:1019600084F8420084F8430084F8440084F8450079
:1019700084F83D00002010BD08B50068B0F1804F2C
:1019800008D10548C16941F00101C161C06900F099
:101990000100009008BD0000001002407047704731
:1019A000F8B5026804461068D168536910F00F0F4B
:1019B0004FF0000553D003F0010601F49077374350
:1019C0005FD0C20705D0CA0503D5226C42F00102E0
:1019D0002264420705D5DA0703D0226C42F00202E6
:1019E0002264820705D5DA0703D0226C42F0040294
:1019F0002264020707D501F02002324303D0226C93
:101A000042F008022264226C002A34D0800604D5F9
:101A1000880602D5204600F023FC20684069216C2E
:101A2000C0F38010090700D430B3204600F000FC5A
:101A30002068416949061BD5416921F04001416197
:101A4000A06BA8B158494163A06BFFF79FF900282C
:101A500011D0A06B416B01B0BDE8F0400847830690
:101A60000FD58B060DD52046BDE8F84000F0F8BB39
:101A70002046FFF794FFF8BD2046FFF790FF25644E
:101A8000F8BD266B2023012E52D1C60650D5CE06B6
:101A90004ED5106850680090506940062AD5A16B59
:101AA000086840680004000CEAD0A68D8642E7D999
:101AB000E0858869202818D0D06820F48070D06034
:101AC0002068416921F0010141612068416921F0EC
:101AD0004001416184F83E3025632068C16821F0EF
:101AE0001001C160A06BFFF72DF9A08DE18D401AA8
:101AF00081B219E0A08DE18D401A81B2E08D0028FD
:101B0000BED00029BCD0D06820F49070D06020688E
:101B1000426922F00102426184F83E302563206868
:101B2000C26822F01002C2602046FFF737FFF8BDFE
:101B300005062BD50D0629D594F83D002128F6D1B0
:101B4000A068B0F5805F01D12069B0B1206A411C66
:101B50002162216800784860E08C401E0004000C7F
:101B6000E084E4D12068C16821F08001C160206870
:101B7000C16841F04001C160F8BD206A0088C0F32F
:101B800008005060206A801C2062E5E74006F3D51B
:101B90004806F1D5D168204621F04001D16084F893
:101BA0003D3000F048F9F8BD2122000870B504006E
:101BB00004D094F83D00002510B106E0012070BD6E
:101BC00084F83C50204600F023F8242084F83D009F
:101BD0002068C16821F40051C160204600F09CFBE0
:101BE0002068016921F4904101612068416921F078
:101BF0002A0141612068C16841F40051C160256437
:101C0000202084F83D0084F83E00002070BD0000D4
:101C100070B586B0002400940194029403942B4E76
:101C200003682B49022003222A4DB34221D18B693C
:101C300043F480438B618B6903F4804304938B6985
:101C400043F004038B618969039201F0040104915C
:101C50000102CDE9001069462846FFF7E3F8281590
:101C6000CDE90004694628460294FFF7DBF806B088
:101C700070BD194EB342FAD1CB6943F40033CB6146
:101C8000CB6903F4003304938B6943F004038B6145
:101C90008969039201F0040104910421CDE9001047
:101CA00069462846FFF7BEF80820CDE900046946DA
:101CB00028460294FFF7B6F8002211462620FFF7C7
:101CC00013FA2620FFF702FAD1E70000003801409E
:101CD00000100240000801400044004090F83E30EF
:101CE000202B0ED159B152B190F83C30012B08D0C5
:101CF000012380F83C300023036300F069BB01201E
:101D0000704702207047000070B5164C0025164E33
:101D1000A188812907D96423192204F1100100F058
:101D200031F8358015E020787054491C88B2A080C5
:101D3000304410F8011C0A290CD110F8020C0D28AF
:101D400008D1094909A0FEF7A1FA80210648FEF74B
:101D5000A1FBA580BDE87040012202490848FFF7B9
:101D6000BDBF0000100000207001002074686520D5
:101D70007369676E616C206973202573200D0A00FA
:101D80002C0100202DE9F843044690F83D001F4641
:101D900016460D4620284CD1C5B1BEB194F83C0082
:101DA000012846D0012084F83C004FF00008C4F818
:101DB0004080212084F83D00FFF72AF9A68481465F
:101DC000E684A068B0F5805F03D004E00120BDE8A0
:101DD000F883206928B12E465FF0000584F83C8026
:101DE0000EE00026FAE78021204600F00CFBA0B9A7
:101DF000AEB116F8010B21684860E08C401EE0840B
:101E0000E08C4B464FF0000200970028EBD14FF0DA
:101E10004001204600F0F7FA30B10320D7E735F84B
:101E2000020BC0F30800E6E7202084F83D00002004
:101E3000CDE70220CBE77047FEE70000F0B585B0A4
:101E4000002424480094019402940394816941F091
:101E500010018161816901F010010491816941F0F3
:101E600020018161816901F020010491816941F0C3
:101E700004018161816901F004010491816941F0EB
:101E8000080181618069144E00F008004FF480451C
:101E90000490002229463046FFF7B4F80F4F002285
:101EA00007213846FFF7AEF80320CDE90240009540
:101EB0000125694601953046FEF7B4FF0720CDE9BC
:101EC00000050220CDE9024069463846FEF7AAFF28
:101ED00005B0F0BD0010024000100140000C0140B0
:101EE0000F4810B50D4901604FF482714160002127
:101EF0008160C1604FF400720161C0E90512C161E7
:101F00000162416281620A21C162FFF79BFB0028E6
:101F100003D0BDE81040FEF713BF10BD00380040ED
:101F20004800002010B58AB0002407941C216846A0
:101F30000894FEF7D1FA16484FF08041016042F252
:101F40001071C0E901144FF47A71C0E9031484617F
:101F5000FFF7E5FC08B1FEF7F3FE079407A90C486C
:101F60000894FFF717FC08B1FEF7EAFE6020CDE900
:101F7000000402940422694605480494FFF76CFCAF
:101F800008B1FEF7DDFE0248FFF738FC0AB010BDCD
:101F9000A00000200C4810B50A4901604FF4E1315F
:101FA0004160002181600C22C160C0E9041281619E
:101FB000C161FFF7FBFD002803D0BDE81040FEF72C
:101FC000BFBE10BD00380140E80000200C4810B52D
:101FD0000A4901604FF4E1314160002181600C2227
:101FE000C160C0E904128161C161FFF7DFFD002813
:101FF00003D0BDE81040FEF7A3BE10BD0044004072
:102000002C010020FEE7FEE770477047FFF706B897
:1020100030B58FB028216846FEF75EFA14210AA871
:10202000FEF75AFA01210804CDE9001000240294B9
:1020300002250491CDE907504FF4E010099068465D
:10204000FFF770F908B172B6FEE70F20CDE90A0577
:102050004FF48060CDE90C4002210AA80E94FFF7EE
:1020600075F8002801D072B6FEE70FB030BD70479A
:10207000F0B50268164B174C174D4FF08047984249
:1020800005D0B84203D0A04201D0A84203D122F02B
:1020900070064A683243984205D0B84203D0A04245
:1020A00001D0A84203D122F44074CA6822434C698B
:1020B00022F08002224302608A68C2620A68826259
:1020C000984201D10969016301214161F0BD00001D
:1020D000002C0140000400400008004030B5026AB6
:1020E00022F001020262026A4368846924F07305E7
:1020F0000C682C4322F002058A682A430A4DA84244
:102100000BD122F00805CA6823F440732A434D69B5
:1021100022F004021D438B692B43436084614968AC
:102120004163026230BD0000002C014030B5026AFC
:1021300022F010020262026A436884690D6824F486
:10214000E64444EA05248D6822F0200242EA0512A2
:102150000B4DA8420ED1CD6822F0800242EA051252
:102160004D6923F4406343EA85038D6922F0400200
:1021700043EA85034360846149688163026230BD3C
:10218000002C014030B5026A22F480720262036AB8
:102190004268C46923F4007324F073050C682C436F
:1021A0008D6843EA05230C4DA8420ED1CD6823F477
:1021B000006343EA05234D6922F4405242EA0512C6
:1021C0008D6923F4806342EA05124260C461496864
:1021D000C163036230BD0000002C014030B5026ACB
:1021E00022F480520262046A4268C3690D6823F4D3
:1021F000E64343EA05238D6824F4005444EA053499
:10220000064DA84204D14D6922F4804242EA85126B
:102210004260C36149680164046230BD002C014022
:1022200010B5406A0021C185C184FFF7B8FB10BD1D
:102230000168CA6822F49072CA6001684A6922F093
:1022400001024A61016B012904D10168CA6822F0C8
:102250001002CA60202180F83E10002101637047FF
:1022600008B590F83E10222901D0022008BD8268EE
:102270004FF480539A4201D1016921B1816A9A4297
:102280001BD04AB10AE00268816A5268C2F30802B0
:102290000A80816A891C08E0026972B1026852688A
:1022A00002F07F020A70816A491C8162C18D491E59
:1022B0000904090CC18503D019E002685268F1E7EE
:1022C0000168CA6822F02002CA600168CA6822F464
:1022D0008072CA6001684A6922F001024A612021C5
:1022E00080F83E10016B012903D0FFF70DFD00209F
:1022F00008BD002101630168CA6822F01002CA60AB
:1023000001680A68D20602D50A6849680091818D81
:10231000FFF744FBEBE7000070B504460068016975
:10232000E26821F44051114301612169A06808432A
:10233000616908432168CA6841F20C639A43024309
:10234000CA6020684169A26921F44071114341616A
:102350001E492068884202D1FEF79EFF01E0FEF789
:102360008BFF00EBC00101EB00126068642180006C
:10237000B2FBF0F3B3FBF1F36FF018067343B2FB5B
:10238000F0F5B2FBF0F605EB8305322303EB051500
:10239000B5FBF1F5B6FBF1F605F0F00505EB06151A
:1023A000B2FBF0F6B2FBF0F0B0FBF1F06FF0180208
:1023B000504306EB800003EB0010B0FBF1F0216806
:1023C00000F00F002844886070BD00000038014014
:1023D00081628285C28500210164222280F83E202C
:1023E00080F83C100168CA6842F48072CA600168D3
:1023F0004A6942F001024A610068C16841F0200167
:10240000C160002070472DE9F041984617460E46FE
:102410000446069D1DE0681C1BD02DB1FEF7F8FD9B
:10242000A0EB0800A84214D92068C16821F4D0713B
:10243000C1602068416921F001014161202084F8D8
:102440003D0084F83E00002084F83C000320BDE8F5
:10245000F0812068006836EA000004D00020B8420D
:10246000D9D00020F3E70120F9E700000148FFF789
:1024700097BA00002C010020FEE70907090E00288A
:1024800004DB00F1E02080F80014704700F00F003A
:1024900000F1E02080F8141D704730380A2801D27E
:1024A000012070470020704704490A685206FCD595
:1024B000024AC1B2121D116070470000003801408D
:1024C000FEF7B4FDFFF7A4FDFFF7B8FCFFF77EFDB4
:1024D000FFF760FDFFF704FDFFF724FD012202492D
:1024E0000248FFF7FBFBFEE710000020E800002099
:1024F00000000000000000000102030406070809B4
:1025000000000000010203043A7474003A7474007D
:102510003A747400342500080000002048000000D0
:10252000280100087C250008480000201809000048
:10253000440100080100000010000000000000003D
:102540000024F40000000000000000000000000073
:102550000000000044617461204F766572666C6F04
:1025600077000000000000000000000000000000F4
:0C2570000000000000000000000000005F
:04000005080000ED02
:00000001FF
